{
  "address": "0xbF96e1DB7b9C72E217Ba6239647b52dF1BEf58EB",
  "abi": [
    {
      "inputs": [
        {
          "internalType": "address",
          "name": "target",
          "type": "address"
        }
      ],
      "name": "AddressEmptyCode",
      "type": "error"
    },
    {
      "inputs": [
        {
          "internalType": "address",
          "name": "account",
          "type": "address"
        }
      ],
      "name": "AddressInsufficientBalance",
      "type": "error"
    },
    {
      "inputs": [],
      "name": "FailedInnerCall",
      "type": "error"
    },
    {
      "inputs": [
        {
          "internalType": "uint256",
          "name": "expected",
          "type": "uint256"
        },
        {
          "internalType": "uint256",
          "name": "actual",
          "type": "uint256"
        }
      ],
      "name": "IncorrectValue",
      "type": "error"
    },
    {
      "inputs": [
        {
          "internalType": "address",
          "name": "token",
          "type": "address"
        }
      ],
      "name": "SafeERC20FailedOperation",
      "type": "error"
    },
    {
      "inputs": [
        {
          "internalType": "address",
          "name": "receiver",
          "type": "address"
        }
      ],
      "name": "TransferFailed",
      "type": "error"
    },
    {
      "inputs": [],
      "name": "VERSION",
      "outputs": [
        {
          "internalType": "uint256",
          "name": "",
          "type": "uint256"
        }
      ],
      "stateMutability": "view",
      "type": "function"
    },
    {
      "inputs": [
        {
          "internalType": "bytes",
          "name": "data",
          "type": "bytes"
        },
        {
          "internalType": "uint256",
          "name": "index",
          "type": "uint256"
        },
        {
          "internalType": "uint256",
          "name": "amount",
          "type": "uint256"
        }
      ],
      "name": "insertAmount",
      "outputs": [
        {
          "internalType": "bytes",
          "name": "",
          "type": "bytes"
        }
      ],
      "stateMutability": "pure",
      "type": "function"
    },
    {
      "inputs": [
        {
          "internalType": "address",
          "name": "primary",
          "type": "address"
        },
        {
          "internalType": "contract IERC20",
          "name": "tokenIn",
          "type": "address"
        },
        {
          "internalType": "contract IERC20",
          "name": "tokenOut",
          "type": "address"
        },
        {
          "internalType": "uint256",
          "name": "amountIn",
          "type": "uint256"
        },
        {
          "internalType": "address",
          "name": "receiver",
          "type": "address"
        },
        {
          "internalType": "bytes",
          "name": "data",
          "type": "bytes"
        },
        {
          "internalType": "uint256",
          "name": "index",
          "type": "uint256"
        }
      ],
      "name": "swap",
      "outputs": [
        {
          "internalType": "bytes",
          "name": "",
          "type": "bytes"
        }
      ],
      "stateMutability": "payable",
      "type": "function"
    },
    {
      "stateMutability": "payable",
      "type": "receive"
    }
  ],
  "transactionHash": "0x32bd89463ee7e7f411ca0f63462050daf321efeafe0a6b0f5c80399d8f639771",
  "args": [],
  "numDeployments": 1,
  "solcInputHash": "ff03cb10c79aa6303556e18071552938",
  "bytecode": "0x608060405234801561001057600080fd5b50610b98806100206000396000f3fe6080604052600436106100385760003560e01c80635c4dabc3146100445780636e4c64eb1461006d578063ffa1ad741461008d57600080fd5b3661003f57005b600080fd5b6100576100523660046109ad565b6100b0565b6040516100649190610a6c565b60405180910390f35b34801561007957600080fd5b50610057610088366004610abd565b6105d1565b34801561009957600080fd5b506100a2600281565b604051908152602001610064565b60607fffffffffffffffffffffffffffffffffffffffffffffffffffffffffffffffff82146100e6576100e48383876105d1565b505b7fffffffffffffffffffffffff111111111111111111111111111111111111111273ffffffffffffffffffffffffffffffffffffffff88160161016f5784341461016a576040517fb25102da000000000000000000000000000000000000000000000000000000008152600481018690523460248201526044015b60405180910390fd5b6103a3565b34156101b0576040517fb25102da00000000000000000000000000000000000000000000000000000000815260006004820152346024820152604401610161565b6101d273ffffffffffffffffffffffffffffffffffffffff88163330886105e6565b6040517fdd62ed3e00000000000000000000000000000000000000000000000000000000815230600482015273ffffffffffffffffffffffffffffffffffffffff898116602483015288169063dd62ed3e90604401602060405180830381865afa158015610244573d6000803e3d6000fd5b505050506040513d601f19601f820116820180604052508101906102689190610b0b565b15610308576040517f095ea7b300000000000000000000000000000000000000000000000000000000815273ffffffffffffffffffffffffffffffffffffffff89811660048301526000602483015288169063095ea7b3906044016020604051808303816000875af11580156102e2573d6000803e3d6000fd5b505050506040513d601f19601f820116820180604052508101906103069190610b24565b505b6040517f095ea7b300000000000000000000000000000000000000000000000000000000815273ffffffffffffffffffffffffffffffffffffffff89811660048301526024820187905288169063095ea7b3906044016020604051808303816000875af115801561037d573d6000803e3d6000fd5b505050506040513d601f19601f820116820180604052508101906103a19190610b24565b505b6000808973ffffffffffffffffffffffffffffffffffffffff1634866040516103cc9190610b46565b60006040518083038185875af1925050503d8060008114610409576040519150601f19603f3d011682016040523d82523d6000602084013e61040e565b606091505b50915091508161042057805160208201fd5b7fffffffffffffffffffffffff111111111111111111111111111111111111111273ffffffffffffffffffffffffffffffffffffffff8916016105125760405173ffffffffffffffffffffffffffffffffffffffff8716904790600081818185875af1925050503d80600081146104b3576040519150601f19603f3d011682016040523d82523d6000602084013e6104b8565b606091505b5050809250508161050d576040517f39f1c8d900000000000000000000000000000000000000000000000000000000815273ffffffffffffffffffffffffffffffffffffffff87166004820152602401610161565b6105c4565b6040517f70a082310000000000000000000000000000000000000000000000000000000081523060048201526105c490879073ffffffffffffffffffffffffffffffffffffffff8b16906370a0823190602401602060405180830381865afa158015610582573d6000803e3d6000fd5b505050506040513d601f19601f820116820180604052508101906105a69190610b0b565b73ffffffffffffffffffffffffffffffffffffffff8b169190610675565b9998505050505050505050565b602082028301602401819052825b9392505050565b60405173ffffffffffffffffffffffffffffffffffffffff848116602483015283811660448301526064820183905261066f9186918216906323b872dd906084015b604051602081830303815290604052915060e01b6020820180517bffffffffffffffffffffffffffffffffffffffffffffffffffffffff83818316178352505050506106b8565b50505050565b60405173ffffffffffffffffffffffffffffffffffffffff8381166024830152604482018390526106b391859182169063a9059cbb90606401610628565b505050565b60006106da73ffffffffffffffffffffffffffffffffffffffff84168361074e565b905080516000141580156106ff5750808060200190518101906106fd9190610b24565b155b156106b3576040517f5274afe700000000000000000000000000000000000000000000000000000000815273ffffffffffffffffffffffffffffffffffffffff84166004820152602401610161565b60606105df83836000846000808573ffffffffffffffffffffffffffffffffffffffff1684866040516107819190610b46565b60006040518083038185875af1925050503d80600081146107be576040519150601f19603f3d011682016040523d82523d6000602084013e6107c3565b606091505b50915091506107d38683836107dd565b9695505050505050565b6060826107f2576107ed8261086c565b6105df565b8151158015610816575073ffffffffffffffffffffffffffffffffffffffff84163b155b15610865576040517f9996b31500000000000000000000000000000000000000000000000000000000815273ffffffffffffffffffffffffffffffffffffffff85166004820152602401610161565b50806105df565b80511561087c5780518082602001fd5b6040517f1425ea4200000000000000000000000000000000000000000000000000000000815260040160405180910390fd5b50565b73ffffffffffffffffffffffffffffffffffffffff811681146108ae57600080fd5b7f4e487b7100000000000000000000000000000000000000000000000000000000600052604160045260246000fd5b600082601f83011261091357600080fd5b813567ffffffffffffffff8082111561092e5761092e6108d3565b604051601f83017fffffffffffffffffffffffffffffffffffffffffffffffffffffffffffffffe0908116603f01168101908282118183101715610974576109746108d3565b8160405283815286602085880101111561098d57600080fd5b836020870160208301376000602085830101528094505050505092915050565b600080600080600080600060e0888a0312156109c857600080fd5b87356109d3816108b1565b965060208801356109e3816108b1565b955060408801356109f3816108b1565b9450606088013593506080880135610a0a816108b1565b925060a088013567ffffffffffffffff811115610a2657600080fd5b610a328a828b01610902565b92505060c0880135905092959891949750929550565b60005b83811015610a63578181015183820152602001610a4b565b50506000910152565b6020815260008251806020840152610a8b816040850160208701610a48565b601f017fffffffffffffffffffffffffffffffffffffffffffffffffffffffffffffffe0169190910160400192915050565b600080600060608486031215610ad257600080fd5b833567ffffffffffffffff811115610ae957600080fd5b610af586828701610902565b9660208601359650604090950135949350505050565b600060208284031215610b1d57600080fd5b5051919050565b600060208284031215610b3657600080fd5b815180151581146105df57600080fd5b60008251610b58818460208701610a48565b919091019291505056fea264697066735822122050cf6114aaf8d8c68d74a914abb616752d757372fef00fbf4b72ab2b7a3779c464736f6c63430008170033",
  "devdoc": {
    "errors": {
      "AddressEmptyCode(address)": [
        {
          "details": "There's no code at `target` (it is not a contract)."
        }
      ],
      "AddressInsufficientBalance(address)": [
        {
          "details": "The ETH balance of the account is not enough to perform the operation."
        }
      ],
      "FailedInnerCall()": [
        {
          "details": "A call to an address target failed. The target may have reverted."
        }
      ],
      "SafeERC20FailedOperation(address)": [
        {
          "details": "An operation with an ERC20 token failed."
        }
      ]
    },
    "kind": "dev",
    "methods": {},
    "version": 1
  },
  "userdoc": {
    "kind": "user",
    "methods": {},
    "notice": "Helper contract to update swap data on-chain",
    "version": 1
  },
  "storageLayout": {
    "storage": [],
    "types": null
  }
}