{
  "address": "0x565e722A41e2fAe78f80aF269C75731590c9Ee45",
  "abi": [
    {
      "inputs": [
        {
          "internalType": "address",
          "name": "target",
          "type": "address"
        }
      ],
      "name": "AddressEmptyCode",
      "type": "error"
    },
    {
      "inputs": [
        {
          "internalType": "address",
          "name": "account",
          "type": "address"
        }
      ],
      "name": "AddressInsufficientBalance",
      "type": "error"
    },
    {
      "inputs": [],
      "name": "FailedInnerCall",
      "type": "error"
    },
    {
      "inputs": [
        {
          "internalType": "uint256",
          "name": "expected",
          "type": "uint256"
        },
        {
          "internalType": "uint256",
          "name": "actual",
          "type": "uint256"
        }
      ],
      "name": "IncorrectValue",
      "type": "error"
    },
    {
      "inputs": [
        {
          "internalType": "address",
          "name": "token",
          "type": "address"
        }
      ],
      "name": "SafeERC20FailedOperation",
      "type": "error"
    },
    {
      "inputs": [
        {
          "internalType": "address",
          "name": "receiver",
          "type": "address"
        }
      ],
      "name": "TransferFailed",
      "type": "error"
    },
    {
      "inputs": [],
      "name": "VERSION",
      "outputs": [
        {
          "internalType": "uint256",
          "name": "",
          "type": "uint256"
        }
      ],
      "stateMutability": "view",
      "type": "function"
    },
    {
      "inputs": [
        {
          "internalType": "bytes",
          "name": "data",
          "type": "bytes"
        },
        {
          "internalType": "uint256[]",
          "name": "pointers",
          "type": "uint256[]"
        },
        {
          "internalType": "uint256",
          "name": "amount",
          "type": "uint256"
        }
      ],
      "name": "insertAmount",
      "outputs": [
        {
          "internalType": "bytes",
          "name": "",
          "type": "bytes"
        }
      ],
      "stateMutability": "pure",
      "type": "function"
    },
    {
      "inputs": [
        {
          "internalType": "address",
          "name": "primary",
          "type": "address"
        },
        {
          "internalType": "contract IERC20",
          "name": "tokenIn",
          "type": "address"
        },
        {
          "internalType": "contract IERC20",
          "name": "tokenOut",
          "type": "address"
        },
        {
          "internalType": "uint256",
          "name": "amountIn",
          "type": "uint256"
        },
        {
          "internalType": "address",
          "name": "receiver",
          "type": "address"
        },
        {
          "internalType": "bytes",
          "name": "data",
          "type": "bytes"
        },
        {
          "internalType": "uint256[]",
          "name": "pointers",
          "type": "uint256[]"
        }
      ],
      "name": "swap",
      "outputs": [
        {
          "internalType": "bytes",
          "name": "",
          "type": "bytes"
        }
      ],
      "stateMutability": "payable",
      "type": "function"
    },
    {
      "stateMutability": "payable",
      "type": "receive"
    }
  ],
  "transactionHash": "0x5e673ebbd88a8bca28d900a05ee93a7d49f7e43de0e49893578590dc63a41c4b",
  "args": [],
  "numDeployments": 2,
  "solcInputHash": "8320917e289e53d1d5c339c148972e0a",
  "bytecode": "0x608060405234801561001057600080fd5b50610c72806100206000396000f3fe6080604052600436106100385760003560e01c80637cbb0c4f1461004457806383d1eb841461007a578063ffa1ad741461008d57600080fd5b3661003f57005b600080fd5b34801561005057600080fd5b5061006461005f366004610a29565b6100b0565b6040516100719190610aba565b60405180910390f35b610064610088366004610b2d565b6100e5565b34801561009957600080fd5b506100a2600481565b604051908152602001610071565b815160609060005b818110156100d857600101602081028501516024908701018490526100b8565b50849150505b9392505050565b606081516000146100fd576100fb8383876100b0565b505b7fffffffffffffffffffffffff111111111111111111111111111111111111111273ffffffffffffffffffffffffffffffffffffffff88160161018657843414610181576040517fb25102da000000000000000000000000000000000000000000000000000000008152600481018690523460248201526044015b60405180910390fd5b61020a565b34156101c7576040517fb25102da00000000000000000000000000000000000000000000000000000000815260006004820152346024820152604401610178565b6101e973ffffffffffffffffffffffffffffffffffffffff8816333088610438565b61020a73ffffffffffffffffffffffffffffffffffffffff881689876104c7565b6000808973ffffffffffffffffffffffffffffffffffffffff1634866040516102339190610be5565b60006040518083038185875af1925050503d8060008114610270576040519150601f19603f3d011682016040523d82523d6000602084013e610275565b606091505b50915091508161028757805160208201fd5b7fffffffffffffffffffffffff111111111111111111111111111111111111111273ffffffffffffffffffffffffffffffffffffffff8916016103795760405173ffffffffffffffffffffffffffffffffffffffff8716904790600081818185875af1925050503d806000811461031a576040519150601f19603f3d011682016040523d82523d6000602084013e61031f565b606091505b50508092505081610374576040517f39f1c8d900000000000000000000000000000000000000000000000000000000815273ffffffffffffffffffffffffffffffffffffffff87166004820152602401610178565b61042b565b6040517f70a0823100000000000000000000000000000000000000000000000000000000815230600482015261042b90879073ffffffffffffffffffffffffffffffffffffffff8b16906370a0823190602401602060405180830381865afa1580156103e9573d6000803e3d6000fd5b505050506040513d601f19601f8201168201806040525081019061040d9190610c01565b73ffffffffffffffffffffffffffffffffffffffff8b16919061059f565b9998505050505050505050565b60405173ffffffffffffffffffffffffffffffffffffffff84811660248301528381166044830152606482018390526104c19186918216906323b872dd906084015b604051602081830303815290604052915060e01b6020820180517bffffffffffffffffffffffffffffffffffffffffffffffffffffffff83818316178352505050506105e2565b50505050565b6040805173ffffffffffffffffffffffffffffffffffffffff8416602482015260448082018490528251808303909101815260649091019091526020810180517bffffffffffffffffffffffffffffffffffffffffffffffffffffffff167f095ea7b3000000000000000000000000000000000000000000000000000000001790526105538482610678565b6104c15760405173ffffffffffffffffffffffffffffffffffffffff84811660248301526000604483015261059591869182169063095ea7b39060640161047a565b6104c184826105e2565b60405173ffffffffffffffffffffffffffffffffffffffff8381166024830152604482018390526105dd91859182169063a9059cbb9060640161047a565b505050565b600061060473ffffffffffffffffffffffffffffffffffffffff84168361073a565b905080516000141580156106295750808060200190518101906106279190610c1a565b155b156105dd576040517f5274afe700000000000000000000000000000000000000000000000000000000815273ffffffffffffffffffffffffffffffffffffffff84166004820152602401610178565b60008060008473ffffffffffffffffffffffffffffffffffffffff16846040516106a29190610be5565b6000604051808303816000865af19150503d80600081146106df576040519150601f19603f3d011682016040523d82523d6000602084013e6106e4565b606091505b509150915081801561070e57508051158061070e57508080602001905181019061070e9190610c1a565b8015610731575060008573ffffffffffffffffffffffffffffffffffffffff163b115b95945050505050565b60606100de83836000846000808573ffffffffffffffffffffffffffffffffffffffff16848660405161076d9190610be5565b60006040518083038185875af1925050503d80600081146107aa576040519150601f19603f3d011682016040523d82523d6000602084013e6107af565b606091505b50915091506107bf8683836107c9565b9695505050505050565b6060826107de576107d982610858565b6100de565b8151158015610802575073ffffffffffffffffffffffffffffffffffffffff84163b155b15610851576040517f9996b31500000000000000000000000000000000000000000000000000000000815273ffffffffffffffffffffffffffffffffffffffff85166004820152602401610178565b50806100de565b8051156108685780518082602001fd5b6040517f1425ea4200000000000000000000000000000000000000000000000000000000815260040160405180910390fd5b50565b7f4e487b7100000000000000000000000000000000000000000000000000000000600052604160045260246000fd5b604051601f82017fffffffffffffffffffffffffffffffffffffffffffffffffffffffffffffffe016810167ffffffffffffffff811182821017156109135761091361089d565b604052919050565b600082601f83011261092c57600080fd5b813567ffffffffffffffff8111156109465761094661089d565b61097760207fffffffffffffffffffffffffffffffffffffffffffffffffffffffffffffffe0601f840116016108cc565b81815284602083860101111561098c57600080fd5b816020850160208301376000918101602001919091529392505050565b600082601f8301126109ba57600080fd5b8135602067ffffffffffffffff8211156109d6576109d661089d565b8160051b6109e58282016108cc565b92835284810182019282810190878511156109ff57600080fd5b83870192505b84831015610a1e57823582529183019190830190610a05565b979650505050505050565b600080600060608486031215610a3e57600080fd5b833567ffffffffffffffff80821115610a5657600080fd5b610a628783880161091b565b94506020860135915080821115610a7857600080fd5b50610a85868287016109a9565b925050604084013590509250925092565b60005b83811015610ab1578181015183820152602001610a99565b50506000910152565b6020815260008251806020840152610ad9816040850160208701610a96565b601f017fffffffffffffffffffffffffffffffffffffffffffffffffffffffffffffffe0169190910160400192915050565b73ffffffffffffffffffffffffffffffffffffffff8116811461089a57600080fd5b600080600080600080600060e0888a031215610b4857600080fd5b8735610b5381610b0b565b96506020880135610b6381610b0b565b95506040880135610b7381610b0b565b9450606088013593506080880135610b8a81610b0b565b925060a088013567ffffffffffffffff80821115610ba757600080fd5b610bb38b838c0161091b565b935060c08a0135915080821115610bc957600080fd5b50610bd68a828b016109a9565b91505092959891949750929550565b60008251610bf7818460208701610a96565b9190910192915050565b600060208284031215610c1357600080fd5b5051919050565b600060208284031215610c2c57600080fd5b815180151581146100de57600080fdfea264697066735822122051a6ed53f317aa018baca9f4382e1dd38a5b128d7da4670f8f039ff5056430a964736f6c63430008170033",
  "devdoc": {
    "errors": {
      "AddressEmptyCode(address)": [
        {
          "details": "There's no code at `target` (it is not a contract)."
        }
      ],
      "AddressInsufficientBalance(address)": [
        {
          "details": "The ETH balance of the account is not enough to perform the operation."
        }
      ],
      "FailedInnerCall()": [
        {
          "details": "A call to an address target failed. The target may have reverted."
        }
      ],
      "SafeERC20FailedOperation(address)": [
        {
          "details": "An operation with an ERC20 token failed."
        }
      ]
    },
    "kind": "dev",
    "methods": {},
    "version": 1
  },
  "userdoc": {
    "kind": "user",
    "methods": {},
    "notice": "Helper contract to update swap data on-chain",
    "version": 1
  },
  "storageLayout": {
    "storage": [],
    "types": null
  }
}