{
  "address": "0x6675a323dEDb77822FCf39eAa9D682F6Abe72555",
  "abi": [
    {
      "inputs": [
        {
          "internalType": "bytes",
          "name": "tuple",
          "type": "bytes"
        },
        {
          "internalType": "uint256",
          "name": "index",
          "type": "uint256"
        }
      ],
      "name": "extractArray",
      "outputs": [
        {
          "internalType": "bytes32",
          "name": "",
          "type": "bytes32"
        }
      ],
      "stateMutability": "pure",
      "type": "function"
    },
    {
      "inputs": [
        {
          "internalType": "bytes",
          "name": "tuple",
          "type": "bytes"
        },
        {
          "internalType": "uint256",
          "name": "index",
          "type": "uint256"
        }
      ],
      "name": "extractDynamicArray",
      "outputs": [
        {
          "internalType": "bytes32",
          "name": "",
          "type": "bytes32"
        }
      ],
      "stateMutability": "pure",
      "type": "function"
    },
    {
      "inputs": [
        {
          "internalType": "bytes",
          "name": "tuple",
          "type": "bytes"
        },
        {
          "internalType": "uint256",
          "name": "index",
          "type": "uint256"
        }
      ],
      "name": "extractDynamicElement",
      "outputs": [
        {
          "internalType": "bytes32",
          "name": "",
          "type": "bytes32"
        }
      ],
      "stateMutability": "pure",
      "type": "function"
    },
    {
      "inputs": [
        {
          "internalType": "bytes",
          "name": "tuple",
          "type": "bytes"
        },
        {
          "internalType": "uint256",
          "name": "index",
          "type": "uint256"
        }
      ],
      "name": "extractElement",
      "outputs": [
        {
          "internalType": "bytes32",
          "name": "",
          "type": "bytes32"
        }
      ],
      "stateMutability": "pure",
      "type": "function"
    },
    {
      "inputs": [
        {
          "internalType": "bytes",
          "name": "tuple",
          "type": "bytes"
        },
        {
          "internalType": "uint256",
          "name": "index",
          "type": "uint256"
        },
        {
          "internalType": "bool[]",
          "name": "isDynamicTypeFormat",
          "type": "bool[]"
        }
      ],
      "name": "extractTuple",
      "outputs": [
        {
          "internalType": "bytes32",
          "name": "",
          "type": "bytes32"
        }
      ],
      "stateMutability": "pure",
      "type": "function"
    },
    {
      "inputs": [
        {
          "internalType": "bytes",
          "name": "tuple",
          "type": "bytes"
        },
        {
          "internalType": "uint256",
          "name": "index",
          "type": "uint256"
        },
        {
          "internalType": "bool[]",
          "name": "isDynamicTypeFormat",
          "type": "bool[]"
        }
      ],
      "name": "extractTupleArray",
      "outputs": [
        {
          "internalType": "bytes32",
          "name": "",
          "type": "bytes32"
        }
      ],
      "stateMutability": "pure",
      "type": "function"
    }
  ],
  "transactionHash": "0x91a5c9fe943a8a7e2fc9cab2cb69235514e81d5b6278ab36bfac2b7658b2d905",
  "args": [],
  "numDeployments": 1,
  "solcInputHash": "bcb0d2b3056dea4137ec031d5f6482e4",
  "bytecode": "0x608060405234801561001057600080fd5b5061068e806100206000396000f3fe608060405234801561001057600080fd5b50600436106100725760003560e01c80639bd3b227116100505780639bd3b227146100c2578063a208b031146100d5578063df6d76b5146100e857600080fd5b80632fb402541461007757806348f263021461009c5780635305afc0146100af575b600080fd5b61008a610085366004610442565b6100fb565b60405190815260200160405180910390f35b61008a6100aa366004610527565b610190565b61008a6100bd366004610527565b6101c2565b61008a6100d0366004610527565b610239565b61008a6100e3366004610442565b610247565b61008a6100f6366004610527565b61031b565b60206001830181028401516000910181805b845181101561017e5761012160208361059b565b9150848181518110610135576101356105b4565b60200260200101511561016c5760208181028401880151840188015101601f81161561016657602090819004600101025b91909101905b80610176816105e3565b91505061010d565b50806020806001880102880151018701f35b60006020806001840102840151018084015160006020820611156101b957602090819004600101025b80602083018601f35b60008060006020806001860102860151019050808501519150600080600190505b83811161022157600181016020028301870151601f81161561020a57602090819004600101025b919091019080610219816105e3565b9150506101e3565b50602081016020806020600189010289015101018701f35b600060208060018401028401f35b6000806020806001860102860151018501519050600081602061026a919061061b565b905060015b8281116103075760005b85518110156102f45761028d60208461059b565b92508581815181106102a1576102a16105b4565b6020026020010151156102e2576020600188810182028a015184830281018b01830151918401830291019081018a0182015101890181015193909301909201915b806102ec816105e3565b915050610279565b50806102ff816105e3565b91505061026f565b506001850160200286015181908701604001f35b60206001820181028301518301808201516000920290604001f35b7f4e487b7100000000000000000000000000000000000000000000000000000000600052604160045260246000fd5b604051601f82017fffffffffffffffffffffffffffffffffffffffffffffffffffffffffffffffe016810167ffffffffffffffff811182821017156103ac576103ac610336565b604052919050565b600082601f8301126103c557600080fd5b813567ffffffffffffffff8111156103df576103df610336565b61041060207fffffffffffffffffffffffffffffffffffffffffffffffffffffffffffffffe0601f84011601610365565b81815284602083860101111561042557600080fd5b816020850160208301376000918101602001919091529392505050565b60008060006060848603121561045757600080fd5b833567ffffffffffffffff8082111561046f57600080fd5b61047b878388016103b4565b94506020915081860135935060408601358181111561049957600080fd5b8601601f810188136104aa57600080fd5b8035828111156104bc576104bc610336565b8060051b92506104cd848401610365565b818152928201840192848101908a8511156104e757600080fd5b928501925b84841015610517578335925082151583146105075760008081fd5b82825292850192908501906104ec565b8096505050505050509250925092565b6000806040838503121561053a57600080fd5b823567ffffffffffffffff81111561055157600080fd5b61055d858286016103b4565b95602094909401359450505050565b7f4e487b7100000000000000000000000000000000000000000000000000000000600052601160045260246000fd5b808201808211156105ae576105ae61056c565b92915050565b7f4e487b7100000000000000000000000000000000000000000000000000000000600052603260045260246000fd5b60007fffffffffffffffffffffffffffffffffffffffffffffffffffffffffffffffff82036106145761061461056c565b5060010190565b6000817fffffffffffffffffffffffffffffffffffffffffffffffffffffffffffffffff04831182151516156106535761065361056c565b50029056fea26469706673582212206a74c2ed44ee098872d72f5da8d1a4de49e3da6d84c59b3aceffe5a1554dd27964736f6c63430008100033",
  "devdoc": {
    "kind": "dev",
    "methods": {
      "extractArray(bytes,uint256)": {
        "details": "Use with .rawValue() in the weiroll planner",
        "params": {
          "index": "The index of the array to be extracted",
          "tuple": "The bytes encoded array"
        }
      },
      "extractDynamicArray(bytes,uint256)": {
        "details": "Use with .rawValue() in the weiroll planner",
        "params": {
          "index": "The index of the dynamic array to be extracted",
          "tuple": "The bytes encoded tuple"
        }
      },
      "extractDynamicElement(bytes,uint256)": {
        "details": "Use with .rawValue() in the weiroll planner",
        "params": {
          "index": "The index of the string or bytes to be extracted",
          "tuple": "The bytes encoded tuple"
        }
      },
      "extractElement(bytes,uint256)": {
        "details": "Use with .rawValue() in the weiroll planner",
        "params": {
          "index": "The index of the value to be extracted",
          "tuple": "The bytes encoded tuple"
        }
      },
      "extractTuple(bytes,uint256,bool[])": {
        "details": "Use with .rawValue() in the weiroll planner",
        "params": {
          "index": "The index of the tuple to be extracted",
          "isDynamicTypeFormat": "Boolean to define whether the child tuple is dynamically sized. If the child tuple contains bytes or string variables, set to \"true\"",
          "tuple": "The bytes encoded parent tuple"
        }
      },
      "extractTupleArray(bytes,uint256,bool[])": {
        "details": "Use with .rawValue() in the weiroll planner",
        "params": {
          "index": "The index of the tuple array to be extracted",
          "isDynamicTypeFormat": "Boolean to define whether the tuples in the array are dynamically sized. If the array tuple contains bytes or string variables, set to \"true\"",
          "tuple": "The bytes encoded tuple"
        }
      }
    },
    "version": 1
  },
  "userdoc": {
    "kind": "user",
    "methods": {
      "extractArray(bytes,uint256)": {
        "notice": "Extract a bytes encoded static array from a tuple"
      },
      "extractDynamicArray(bytes,uint256)": {
        "notice": "Extract a bytes encoded dynamic array from a tuple"
      },
      "extractDynamicElement(bytes,uint256)": {
        "notice": "Extract a bytes encoded dynamic type from a tuple"
      },
      "extractElement(bytes,uint256)": {
        "notice": "Extract a bytes32 encoded static type from a tuple"
      },
      "extractTuple(bytes,uint256,bool[])": {
        "notice": "Extract a bytes encoded tuple from another tuple"
      },
      "extractTupleArray(bytes,uint256,bool[])": {
        "notice": "Extract a bytes encoded array of tuples from a tuple"
      }
    },
    "notice": "Helper contract to extract a variety of types from a tuple within the context of a weiroll script",
    "version": 1
  },
  "storageLayout": {
    "storage": [],
    "types": null
  }
}