{
  "address": "0x4b6959658aBAa91121bEd0bf07fd35080276e47e",
  "abi": [
    {
      "inputs": [],
      "name": "VERSION",
      "outputs": [
        {
          "internalType": "uint256",
          "name": "",
          "type": "uint256"
        }
      ],
      "stateMutability": "view",
      "type": "function"
    },
    {
      "inputs": [
        {
          "internalType": "uint256",
          "name": "exitKind",
          "type": "uint256"
        },
        {
          "internalType": "uint256",
          "name": "amount",
          "type": "uint256"
        },
        {
          "internalType": "uint256",
          "name": "tokenIndex",
          "type": "uint256"
        }
      ],
      "name": "encodeDataForExitKindZero",
      "outputs": [
        {
          "internalType": "bytes",
          "name": "",
          "type": "bytes"
        }
      ],
      "stateMutability": "pure",
      "type": "function"
    },
    {
      "inputs": [
        {
          "internalType": "uint256",
          "name": "joinKind",
          "type": "uint256"
        },
        {
          "internalType": "uint256[]",
          "name": "amounts",
          "type": "uint256[]"
        },
        {
          "internalType": "uint256",
          "name": "minimumBPT",
          "type": "uint256"
        }
      ],
      "name": "encodeDataForJoinKindOne",
      "outputs": [
        {
          "internalType": "bytes",
          "name": "",
          "type": "bytes"
        }
      ],
      "stateMutability": "pure",
      "type": "function"
    }
  ],
  "transactionHash": "0x6fdb15b3283e91f3b9497ab6aa7dc5519283acb6777d2b9437278f2bf4df4196",
  "args": [],
  "numDeployments": 4,
  "solcInputHash": "fd826b8a6f9285c3874f94fb848efcaf",
  "bytecode": "0x608060405234801561001057600080fd5b50610329806100206000396000f3fe608060405234801561001057600080fd5b50600436106100415760003560e01c8063b8a7d9b814610046578063edc0f45f1461006f578063ffa1ad7414610082575b600080fd5b6100596100543660046100e5565b610098565b6040516100669190610111565b60405180910390f35b61005961007d3660046101ac565b6100ce565b61008a600281565b604051908152602001610066565b60408051602081018590529081018390526060818101839052906080015b60405160208183030381529060405290509392505050565b60608383836040516020016100b69392919061029c565b6000806000606084860312156100fa57600080fd5b505081359360208301359350604090920135919050565b600060208083528351808285015260005b8181101561013e57858101830151858201604001528201610122565b5060006040828601015260407fffffffffffffffffffffffffffffffffffffffffffffffffffffffffffffffe0601f8301168501019250505092915050565b7f4e487b7100000000000000000000000000000000000000000000000000000000600052604160045260246000fd5b6000806000606084860312156101c157600080fd5b8335925060208085013567ffffffffffffffff808211156101e157600080fd5b818701915087601f8301126101f557600080fd5b8135818111156102075761020761017d565b8060051b6040517fffffffffffffffffffffffffffffffffffffffffffffffffffffffffffffffe0603f8301168101818110858211171561024a5761024a61017d565b60405291825284820192508381018501918a83111561026857600080fd5b938501935b828510156102865784358452938501939285019261026d565b979a979950505050604095909501359450505050565b6000606082018583526020606081850152818651808452608086019150828801935060005b818110156102dd578451835293830193918301916001016102c1565b505080935050505082604083015294935050505056fea26469706673582212203fb8671768284216eb250c4a29fa6ef95249bc81416133e1e6cc85fe4aeeeca664736f6c63430008100033",
  "devdoc": {
    "kind": "dev",
    "methods": {},
    "version": 1
  },
  "userdoc": {
    "kind": "user",
    "methods": {},
    "notice": "Helper contract to encode Balancer userData",
    "version": 1
  },
  "storageLayout": {
    "storage": [],
    "types": null
  }
}