{
  "address": "0x931d7cF053Af88659F2aa2746483E3B365Ea5DF8",
  "abi": [
    {
      "inputs": [],
      "name": "UIntOutOfBounds",
      "type": "error"
    },
    {
      "inputs": [
        {
          "internalType": "uint256",
          "name": "x",
          "type": "uint256"
        },
        {
          "internalType": "uint256",
          "name": "y",
          "type": "uint256"
        }
      ],
      "name": "divuu",
      "outputs": [
        {
          "internalType": "uint192",
          "name": "",
          "type": "uint192"
        }
      ],
      "stateMutability": "pure",
      "type": "function"
    },
    {
      "inputs": [
        {
          "internalType": "uint192",
          "name": "x",
          "type": "uint192"
        },
        {
          "internalType": "uint192",
          "name": "y",
          "type": "uint192"
        }
      ],
      "name": "fixMin",
      "outputs": [
        {
          "internalType": "uint192",
          "name": "",
          "type": "uint192"
        }
      ],
      "stateMutability": "pure",
      "type": "function"
    },
    {
      "inputs": [
        {
          "internalType": "uint256",
          "name": "x",
          "type": "uint256"
        },
        {
          "internalType": "uint256",
          "name": "y",
          "type": "uint256"
        }
      ],
      "name": "fullMul",
      "outputs": [
        {
          "internalType": "uint256",
          "name": "hi",
          "type": "uint256"
        },
        {
          "internalType": "uint256",
          "name": "lo",
          "type": "uint256"
        }
      ],
      "stateMutability": "pure",
      "type": "function"
    },
    {
      "inputs": [
        {
          "internalType": "contract IRToken",
          "name": "rToken",
          "type": "address"
        }
      ],
      "name": "maxIssuableByAmounts",
      "outputs": [
        {
          "internalType": "uint256",
          "name": "",
          "type": "uint256"
        }
      ],
      "stateMutability": "view",
      "type": "function"
    },
    {
      "inputs": [
        {
          "internalType": "uint256",
          "name": "x",
          "type": "uint256"
        },
        {
          "internalType": "uint256",
          "name": "y",
          "type": "uint256"
        },
        {
          "internalType": "uint256",
          "name": "z",
          "type": "uint256"
        }
      ],
      "name": "mulDiv256",
      "outputs": [
        {
          "internalType": "uint256",
          "name": "result",
          "type": "uint256"
        }
      ],
      "stateMutability": "pure",
      "type": "function"
    },
    {
      "inputs": [
        {
          "internalType": "uint256",
          "name": "x",
          "type": "uint256"
        },
        {
          "internalType": "uint256",
          "name": "y",
          "type": "uint256"
        },
        {
          "internalType": "uint256",
          "name": "z",
          "type": "uint256"
        },
        {
          "internalType": "enum RoundingMode",
          "name": "rounding",
          "type": "uint8"
        }
      ],
      "name": "mulDiv256",
      "outputs": [
        {
          "internalType": "uint256",
          "name": "",
          "type": "uint256"
        }
      ],
      "stateMutability": "pure",
      "type": "function"
    },
    {
      "inputs": [
        {
          "internalType": "uint256",
          "name": "x",
          "type": "uint256"
        }
      ],
      "name": "safeWrap",
      "outputs": [
        {
          "internalType": "uint192",
          "name": "",
          "type": "uint192"
        }
      ],
      "stateMutability": "pure",
      "type": "function"
    }
  ],
  "transactionHash": "0xd17868d0a3e358958db2c4813a66626ec599ee17dd45e530d350125a03b83cbb",
  "args": [],
  "numDeployments": 3,
  "solcInputHash": "4f7569e14346c786301574a6840cfe01",
  "bytecode": "0x608060405234801561001057600080fd5b506108a9806100206000396000f3fe608060405234801561001057600080fd5b506004361061007d5760003560e01c806367a4a3dd1161005b57806367a4a3dd146100f7578063e8067bd51461011f578063f7cd013514610132578063f86cf4591461014557600080fd5b806302292cf91461008257806312d96264146100a85780633ffabafe146100bb575b600080fd5b6100956100903660046105bd565b610158565b6040519081526020015b60405180910390f35b6100956100b63660046105f3565b61024f565b6100ce6100c936600461061f565b61034b565b60405177ffffffffffffffffffffffffffffffffffffffffffffffff909116815260200161009f565b61010a610105366004610638565b6103a3565b6040805192835260208301919091520161009f565b6100ce61012d366004610638565b6103ee565b6100ce610140366004610687565b61040d565b6100956101533660046106ba565b610457565b60006101986040518060400160405280600381526020017f5754460000000000000000000000000000000000000000000000000000000000815250610506565b60008273ffffffffffffffffffffffffffffffffffffffff166318160ddd6040518163ffffffff1660e01b8152600401602060405180830381865afa1580156101e5573d6000803e3d6000fd5b505050506040513d601f19601f8201168201806040525081019061020991906106ff565b90506102496040518060400160405280600681526020017f43616c6c65640000000000000000000000000000000000000000000000000000815250610506565b92915050565b600080600061025e86866103a3565b9150915083821061029b576040517ff44398f500000000000000000000000000000000000000000000000000000000815260040160405180910390fd5b600084806102ab576102ab610718565b8688099050818111156102bf576001830392505b9081900390600085900385168086816102da576102da610718565b0495508083816102ec576102ec610718565b04925080816000038161030157610301610718565b046001019390930291909101600285810380870282030280870282030280870282030280870282030280870282030280870282030295860290039094029390930295945050505050565b600077ffffffffffffffffffffffffffffffffffffffffffffffff82111561039f576040517ff44398f500000000000000000000000000000000000000000000000000000000815260040160405180910390fd5b5090565b600080807fffffffffffffffffffffffffffffffffffffffffffffffffffffffffffffffff848609905083850291508181039250818110156103e6576001830392505b509250929050565b60006104066100c9670de0b6b3a7640000858561024f565b9392505050565b60008177ffffffffffffffffffffffffffffffffffffffffffffffff168377ffffffffffffffffffffffffffffffffffffffffffffffff16106104505781610406565b5090919050565b60008061046586868661024f565b9050600083600281111561047b5761047b610747565b036104875790506104fe565b6000848061049757610497610718565b868809905060028460028111156104b0576104b0610747565b036104ce5780156104c9576104c66001836107a5565b91505b6104fa565b60026104db6001876107b8565b6104e591906107cb565b8111156104fa576104f76001836107a5565b91505b5090505b949350505050565b6105958160405160240161051a9190610806565b604080517fffffffffffffffffffffffffffffffffffffffffffffffffffffffffffffffe08184030181529190526020810180517bffffffffffffffffffffffffffffffffffffffffffffffffffffffff167f41304fac00000000000000000000000000000000000000000000000000000000179052610598565b50565b6105958160006a636f6e736f6c652e6c6f679050600080835160208501845afa505050565b6000602082840312156105cf57600080fd5b813573ffffffffffffffffffffffffffffffffffffffff8116811461040657600080fd5b60008060006060848603121561060857600080fd5b505081359360208301359350604090920135919050565b60006020828403121561063157600080fd5b5035919050565b6000806040838503121561064b57600080fd5b50508035926020909101359150565b803577ffffffffffffffffffffffffffffffffffffffffffffffff8116811461068257600080fd5b919050565b6000806040838503121561069a57600080fd5b6106a38361065a565b91506106b16020840161065a565b90509250929050565b600080600080608085870312156106d057600080fd5b8435935060208501359250604085013591506060850135600381106106f457600080fd5b939692955090935050565b60006020828403121561071157600080fd5b5051919050565b7f4e487b7100000000000000000000000000000000000000000000000000000000600052601260045260246000fd5b7f4e487b7100000000000000000000000000000000000000000000000000000000600052602160045260246000fd5b7f4e487b7100000000000000000000000000000000000000000000000000000000600052601160045260246000fd5b8082018082111561024957610249610776565b8181038181111561024957610249610776565b600082610801577f4e487b7100000000000000000000000000000000000000000000000000000000600052601260045260246000fd5b500490565b60006020808352835180602085015260005b8181101561083457858101830151858201604001528201610818565b5060006040828601015260407fffffffffffffffffffffffffffffffffffffffffffffffffffffffffffffffe0601f830116850101925050509291505056fea26469706673582212209a63c120cd88d3a040c318d19d421f0283e1b69e0023aba95d53f2e12ed3f47d64736f6c63430008170033",
  "devdoc": {
    "kind": "dev",
    "methods": {
      "divuu(uint256,uint256)": {
        "returns": {
          "_0": "x / y"
        }
      },
      "fixMin(uint192,uint192)": {
        "returns": {
          "_0": "min(x,y)"
        }
      },
      "fullMul(uint256,uint256)": {
        "details": "Intended to be internal to this library",
        "returns": {
          "hi": "(hi, lo) satisfies  hi*(2**256) + lo == x * y",
          "lo": "(paired with `hi`)"
        }
      },
      "mulDiv256(uint256,uint256,uint256)": {
        "details": "Only use if you need to avoid overflow; costlier than x * y / z",
        "returns": {
          "result": "x * y / z"
        }
      },
      "mulDiv256(uint256,uint256,uint256,uint8)": {
        "details": "Only use if you need to avoid overflow; costlier than x * y / z",
        "returns": {
          "_0": "x * y / z"
        }
      }
    },
    "version": 1
  },
  "userdoc": {
    "kind": "user",
    "methods": {
      "divuu(uint256,uint256)": {
        "notice": "Divide a uint by a uint, yielding a  uint192"
      },
      "fullMul(uint256,uint256)": {
        "notice": "Return (x*y) as a \"virtual uint512\" (lo, hi), representing (hi*2**256 + lo)   Adapted from sources:   https://medium.com/wicketh/27650fec525d, https://medium.com/coinmonks/4db014e080b1"
      },
      "mulDiv256(uint256,uint256,uint256,uint8)": {
        "notice": "Return (x*y/z), avoiding intermediate overflow."
      },
      "safeWrap(uint256)": {
        "notice": "Explicitly convert a uint256 to a uint192. Revert if the input is out of bounds."
      }
    },
    "version": 1
  },
  "storageLayout": {
    "storage": [],
    "types": null
  }
}