{
  "address": "0x14aB2Ef4c52eAf78c51905cc72f626E9d76F19Ea",
  "abi": [
    {
      "inputs": [
        {
          "internalType": "address",
          "name": "sender",
          "type": "address"
        },
        {
          "internalType": "address",
          "name": "receiver",
          "type": "address"
        }
      ],
      "name": "InvalidReceiver",
      "type": "error"
    },
    {
      "inputs": [],
      "name": "VERSION",
      "outputs": [
        {
          "internalType": "uint256",
          "name": "",
          "type": "uint256"
        }
      ],
      "stateMutability": "view",
      "type": "function"
    },
    {
      "inputs": [
        {
          "internalType": "contract IERC4626",
          "name": "vault",
          "type": "address"
        },
        {
          "internalType": "uint256",
          "name": "assets",
          "type": "uint256"
        },
        {
          "internalType": "address",
          "name": "receiver",
          "type": "address"
        }
      ],
      "name": "depositToReceiver",
      "outputs": [
        {
          "internalType": "uint256",
          "name": "",
          "type": "uint256"
        }
      ],
      "stateMutability": "nonpayable",
      "type": "function"
    }
  ],
  "transactionHash": "0x38ab170e0eba89718c1e2dd47b766c7bd08553a0f0ea6d434b9cecd7576e350d",
  "args": [],
  "numDeployments": 3,
  "solcInputHash": "b811a532fa164d374623550c60534daa",
  "bytecode": "0x608060405234801561000f575f80fd5b5061053b8061001d5f395ff3fe608060405234801561000f575f80fd5b5060043610610034575f3560e01c806310e98ddf14610038578063ffa1ad741461005d575b5f80fd5b61004b61004636600461046e565b610065565b60405190815260200160405180910390f35b61004b600281565b5f3273ffffffffffffffffffffffffffffffffffffffff8316146100d7576040517f9aa0267000000000000000000000000000000000000000000000000000000000815233600482015273ffffffffffffffffffffffffffffffffffffffff8316602482015260440160405180910390fd5b5f8473ffffffffffffffffffffffffffffffffffffffff166338d52e0f6040518163ffffffff1660e01b81526004016020604051808303815f875af1158015610122573d5f803e3d5ffd5b505050506040513d601f19601f8201168201806040525081019061014691906104ad565b6040517f23b872dd0000000000000000000000000000000000000000000000000000000081523360048201523060248201526044810186905290915073ffffffffffffffffffffffffffffffffffffffff8216906323b872dd906064016020604051808303815f875af11580156101bf573d5f803e3d5ffd5b505050506040513d601f19601f820116820180604052508101906101e391906104cf565b506040517fdd62ed3e00000000000000000000000000000000000000000000000000000000815230600482015273ffffffffffffffffffffffffffffffffffffffff868116602483015282169063dd62ed3e90604401602060405180830381865afa158015610254573d5f803e3d5ffd5b505050506040513d601f19601f8201168201806040525081019061027891906104ee565b15610314576040517f095ea7b300000000000000000000000000000000000000000000000000000000815273ffffffffffffffffffffffffffffffffffffffff86811660048301525f602483015282169063095ea7b3906044016020604051808303815f875af11580156102ee573d5f803e3d5ffd5b505050506040513d601f19601f8201168201806040525081019061031291906104cf565b505b6040517f095ea7b300000000000000000000000000000000000000000000000000000000815273ffffffffffffffffffffffffffffffffffffffff86811660048301526024820186905282169063095ea7b3906044016020604051808303815f875af1158015610386573d5f803e3d5ffd5b505050506040513d601f19601f820116820180604052508101906103aa91906104cf565b506040517f6e553f650000000000000000000000000000000000000000000000000000000081526004810185905273ffffffffffffffffffffffffffffffffffffffff8481166024830152861690636e553f65906044016020604051808303815f875af115801561041d573d5f803e3d5ffd5b505050506040513d601f19601f8201168201806040525081019061044191906104ee565b95945050505050565b73ffffffffffffffffffffffffffffffffffffffff8116811461046b575f80fd5b50565b5f805f60608486031215610480575f80fd5b833561048b8161044a565b92506020840135915060408401356104a28161044a565b809150509250925092565b5f602082840312156104bd575f80fd5b81516104c88161044a565b9392505050565b5f602082840312156104df575f80fd5b815180151581146104c8575f80fd5b5f602082840312156104fe575f80fd5b505191905056fea264697066735822122061cdd0a7ff7910bf62019e0c57c3c7701e3dfabb3a01c8db67147c412c9ea7b964736f6c63430008170033",
  "devdoc": {
    "kind": "dev",
    "methods": {},
    "version": 1
  },
  "userdoc": {
    "kind": "user",
    "methods": {},
    "notice": "Helper contract to handle Sommelier receiver",
    "version": 1
  },
  "storageLayout": {
    "storage": [],
    "types": null
  }
}