{
  "address": "0x7E7d64D987cAb6EeD08A191C4C2459dAF2f8ED0B",
  "abi": [
    {
      "inputs": [],
      "name": "VERSION",
      "outputs": [
        {
          "internalType": "uint256",
          "name": "",
          "type": "uint256"
        }
      ],
      "stateMutability": "view",
      "type": "function"
    },
    {
      "inputs": [
        {
          "internalType": "bytes32",
          "name": "input",
          "type": "bytes32"
        }
      ],
      "name": "bytes32ToAddress",
      "outputs": [
        {
          "internalType": "address",
          "name": "",
          "type": "address"
        }
      ],
      "stateMutability": "pure",
      "type": "function"
    },
    {
      "inputs": [
        {
          "internalType": "bytes32",
          "name": "input",
          "type": "bytes32"
        }
      ],
      "name": "bytes32ToUint256",
      "outputs": [
        {
          "internalType": "uint256",
          "name": "",
          "type": "uint256"
        }
      ],
      "stateMutability": "pure",
      "type": "function"
    },
    {
      "inputs": [
        {
          "internalType": "bytes",
          "name": "input",
          "type": "bytes"
        }
      ],
      "name": "bytesToBytes32",
      "outputs": [
        {
          "internalType": "bytes32",
          "name": "",
          "type": "bytes32"
        }
      ],
      "stateMutability": "pure",
      "type": "function"
    },
    {
      "inputs": [
        {
          "internalType": "bytes",
          "name": "input",
          "type": "bytes"
        }
      ],
      "name": "bytesToString",
      "outputs": [
        {
          "internalType": "string",
          "name": "",
          "type": "string"
        }
      ],
      "stateMutability": "pure",
      "type": "function"
    },
    {
      "inputs": [
        {
          "internalType": "bytes",
          "name": "input",
          "type": "bytes"
        }
      ],
      "name": "bytesToUint256",
      "outputs": [
        {
          "internalType": "uint256",
          "name": "",
          "type": "uint256"
        }
      ],
      "stateMutability": "pure",
      "type": "function"
    },
    {
      "inputs": [
        {
          "internalType": "bool",
          "name": "condition",
          "type": "bool"
        }
      ],
      "name": "check",
      "outputs": [],
      "stateMutability": "pure",
      "type": "function"
    },
    {
      "inputs": [
        {
          "internalType": "address",
          "name": "balanceAddress",
          "type": "address"
        }
      ],
      "name": "getBalance",
      "outputs": [
        {
          "internalType": "uint256",
          "name": "balance",
          "type": "uint256"
        }
      ],
      "stateMutability": "view",
      "type": "function"
    },
    {
      "inputs": [],
      "name": "getBlockTimestamp",
      "outputs": [
        {
          "internalType": "uint256",
          "name": "timestamp",
          "type": "uint256"
        }
      ],
      "stateMutability": "view",
      "type": "function"
    },
    {
      "inputs": [
        {
          "internalType": "int256",
          "name": "value",
          "type": "int256"
        }
      ],
      "name": "int256ToUint256",
      "outputs": [
        {
          "internalType": "uint256",
          "name": "",
          "type": "uint256"
        }
      ],
      "stateMutability": "pure",
      "type": "function"
    },
    {
      "inputs": [
        {
          "internalType": "address",
          "name": "a",
          "type": "address"
        },
        {
          "internalType": "address",
          "name": "b",
          "type": "address"
        }
      ],
      "name": "isAddressEqual",
      "outputs": [
        {
          "internalType": "bool",
          "name": "",
          "type": "bool"
        }
      ],
      "stateMutability": "pure",
      "type": "function"
    },
    {
      "inputs": [
        {
          "internalType": "uint256",
          "name": "a",
          "type": "uint256"
        },
        {
          "internalType": "uint256",
          "name": "b",
          "type": "uint256"
        }
      ],
      "name": "isEqual",
      "outputs": [
        {
          "internalType": "bool",
          "name": "",
          "type": "bool"
        }
      ],
      "stateMutability": "pure",
      "type": "function"
    },
    {
      "inputs": [
        {
          "internalType": "uint256",
          "name": "a",
          "type": "uint256"
        },
        {
          "internalType": "uint256",
          "name": "b",
          "type": "uint256"
        }
      ],
      "name": "isEqualOrGreaterThan",
      "outputs": [
        {
          "internalType": "bool",
          "name": "",
          "type": "bool"
        }
      ],
      "stateMutability": "pure",
      "type": "function"
    },
    {
      "inputs": [
        {
          "internalType": "uint256",
          "name": "a",
          "type": "uint256"
        },
        {
          "internalType": "uint256",
          "name": "b",
          "type": "uint256"
        }
      ],
      "name": "isEqualOrLessThan",
      "outputs": [
        {
          "internalType": "bool",
          "name": "",
          "type": "bool"
        }
      ],
      "stateMutability": "pure",
      "type": "function"
    },
    {
      "inputs": [
        {
          "internalType": "uint256",
          "name": "a",
          "type": "uint256"
        },
        {
          "internalType": "uint256",
          "name": "b",
          "type": "uint256"
        }
      ],
      "name": "isGreaterThan",
      "outputs": [
        {
          "internalType": "bool",
          "name": "",
          "type": "bool"
        }
      ],
      "stateMutability": "pure",
      "type": "function"
    },
    {
      "inputs": [
        {
          "internalType": "uint256",
          "name": "a",
          "type": "uint256"
        },
        {
          "internalType": "uint256",
          "name": "b",
          "type": "uint256"
        }
      ],
      "name": "isLessThan",
      "outputs": [
        {
          "internalType": "bool",
          "name": "",
          "type": "bool"
        }
      ],
      "stateMutability": "pure",
      "type": "function"
    },
    {
      "inputs": [
        {
          "internalType": "bool",
          "name": "condition",
          "type": "bool"
        }
      ],
      "name": "not",
      "outputs": [
        {
          "internalType": "bool",
          "name": "",
          "type": "bool"
        }
      ],
      "stateMutability": "pure",
      "type": "function"
    },
    {
      "inputs": [
        {
          "internalType": "bool",
          "name": "condition",
          "type": "bool"
        },
        {
          "internalType": "uint256",
          "name": "a",
          "type": "uint256"
        },
        {
          "internalType": "uint256",
          "name": "b",
          "type": "uint256"
        }
      ],
      "name": "toggle",
      "outputs": [
        {
          "internalType": "uint256",
          "name": "",
          "type": "uint256"
        }
      ],
      "stateMutability": "pure",
      "type": "function"
    },
    {
      "inputs": [
        {
          "internalType": "uint256",
          "name": "value",
          "type": "uint256"
        }
      ],
      "name": "uint256ToInt256",
      "outputs": [
        {
          "internalType": "int256",
          "name": "",
          "type": "int256"
        }
      ],
      "stateMutability": "pure",
      "type": "function"
    }
  ],
  "args": [],
  "numDeployments": 6,
  "solcInputHash": "1149d86191289d6e6346c11ec16173ae",
  "bytecode": "0x608060405234801561001057600080fd5b506107ea806100206000396000f3fe608060405234801561001057600080fd5b50600436106101515760003560e01c8063b0ad3a5f116100cd578063ddcd522011610081578063f158392611610066578063f1583926146102c5578063f8b2cb4f146102f1578063ffa1ad741461031957600080fd5b8063ddcd5220146102a5578063e9970b6c146102b357600080fd5b8063bfe370d9116100b2578063bfe370d91461026d578063cc9de25d14610280578063dcf6a5921461029357600080fd5b8063b0ad3a5f14610248578063ba5f9e811461025a57600080fd5b806350397102116101245780636e7a43a3116101095780636e7a43a31461021c578063796b89b91461022f578063b004cd0d1461023557600080fd5b806350397102146101d35780635ced058e146101e657600080fd5b8063241c591214610156578063294dc2231461016b57806339614e4f146101915780633ced224a146101b1575b600080fd5b61016961016436600461058f565b610321565b005b61017e6101793660046105aa565b610390565b6040519081526020015b60405180910390f35b6101a461019f3660046105c3565b610400565b6040516101889190610635565b6101c36101bf3660046106a1565b1490565b6040519015158152602001610188565b6101c36101e13660046106a1565b101590565b6101f76101f43660046105aa565b90565b60405173ffffffffffffffffffffffffffffffffffffffff9091168152602001610188565b6101c361022a3660046106a1565b111590565b4261017e565b61017e6102433660046105aa565b61042d565b6101c361025636600461058f565b1590565b61017e6102683660046106c3565b6104b9565b61017e61027b3660046105c3565b6104d2565b61017e61028e3660046105c3565b6104de565b6101c36102a13660046106a1565b1090565b61017e6101f43660046105aa565b6101c36102c13660046106a1565b1190565b6101c36102d336600461071a565b73ffffffffffffffffffffffffffffffffffffffff90811691161490565b61017e6102ff36600461074d565b73ffffffffffffffffffffffffffffffffffffffff163190565b61017e600381565b8061038d576040517f08c379a000000000000000000000000000000000000000000000000000000000815260206004820152601160248201527f436f6e646974696f6e206e6f74206d657400000000000000000000000000000060448201526064015b60405180910390fd5b50565b6000808212156103fc576040517f08c379a000000000000000000000000000000000000000000000000000000000815260206004820152601660248201527f56616c7565206d75737420626520706f736974697665000000000000000000006044820152606401610384565b5090565b60608282604051602001610415929190610768565b60405160208183030381529060405290505b92915050565b60007f7fffffffffffffffffffffffffffffffffffffffffffffffffffffffffffffff8211156103fc576040517f08c379a000000000000000000000000000000000000000000000000000000000815260206004820152601f60248201527f56616c756520646f6573206e6f742066697420696e20616e20696e74323536006044820152606401610384565b600083156104c85750816104cb565b50805b9392505050565b60006104cb8284610778565b600060208214610570576040517f08c379a000000000000000000000000000000000000000000000000000000000815260206004820152603260248201527f456e736f53686f72746375747348656c706572733a20696e707574206c656e6760448201527f7468206973206e6f7420333220627974657300000000000000000000000000006064820152608401610384565b6104cb8284610778565b8035801515811461058a57600080fd5b919050565b6000602082840312156105a157600080fd5b6104cb8261057a565b6000602082840312156105bc57600080fd5b5035919050565b600080602083850312156105d657600080fd5b823567ffffffffffffffff808211156105ee57600080fd5b818501915085601f83011261060257600080fd5b81358181111561061157600080fd5b86602082850101111561062357600080fd5b60209290920196919550909350505050565b600060208083528351808285015260005b8181101561066257858101830151858201604001528201610646565b5060006040828601015260407fffffffffffffffffffffffffffffffffffffffffffffffffffffffffffffffe0601f8301168501019250505092915050565b600080604083850312156106b457600080fd5b50508035926020909101359150565b6000806000606084860312156106d857600080fd5b6106e18461057a565b95602085013595506040909401359392505050565b803573ffffffffffffffffffffffffffffffffffffffff8116811461058a57600080fd5b6000806040838503121561072d57600080fd5b610736836106f6565b9150610744602084016106f6565b90509250929050565b60006020828403121561075f57600080fd5b6104cb826106f6565b8183823760009101908152919050565b80356020831015610427577fffffffffffffffffffffffffffffffffffffffffffffffffffffffffffffffff602084900360031b1b169291505056fea2646970667358221220d8c4b50b30e6a262a7aaff03f63d0f8e62fc1c7185c545361b258d2bd8df711c64736f6c63430008100033",
  "devdoc": {
    "details": "SignedMathHelpers contract is recommended to use only in Shortcuts passed to EnsoWallet. This contract functions allow to dynamically get the data during Shortcut transaction execution that usually would be read between transactions",
    "kind": "dev",
    "methods": {
      "bytes32ToAddress(bytes32)": {
        "details": "Returns `input` bytes32 as address."
      },
      "bytes32ToUint256(bytes32)": {
        "details": "Returns `input` bytes32 as uint256."
      },
      "bytesToBytes32(bytes)": {
        "details": "Returns `input` bytes as bytes32."
      },
      "bytesToString(bytes)": {
        "details": "Returns `input` bytes as string."
      },
      "bytesToUint256(bytes)": {
        "details": "Returns `input` bytes as uint256."
      },
      "check(bool)": {
        "details": "Reverts depending on a truth condition"
      },
      "getBalance(address)": {
        "details": "Returns the ether balance of given `balanceAddress`."
      },
      "getBlockTimestamp()": {
        "details": "Returns the current block timestamp."
      },
      "int256ToUint256(int256)": {
        "details": "Returns int256 `value` as uint256."
      },
      "isAddressEqual(address,address)": {
        "details": "Returns bool for a == b"
      },
      "isEqual(uint256,uint256)": {
        "details": "Returns bool for a == b"
      },
      "isEqualOrGreaterThan(uint256,uint256)": {
        "details": "Returns bool for a >= b"
      },
      "isEqualOrLessThan(uint256,uint256)": {
        "details": "Returns bool for a <= b"
      },
      "isGreaterThan(uint256,uint256)": {
        "details": "Returns bool for a > b"
      },
      "isLessThan(uint256,uint256)": {
        "details": "Returns bool for a < b"
      },
      "not(bool)": {
        "details": "Returns the inverse bool"
      },
      "toggle(bool,uint256,uint256)": {
        "details": "Returns a value depending on a truth condition"
      },
      "uint256ToInt256(uint256)": {
        "details": "Returns uint256 `value` as int256."
      }
    },
    "version": 1
  },
  "userdoc": {
    "kind": "user",
    "methods": {},
    "version": 1
  },
  "storageLayout": {
    "storage": [],
    "types": null
  }
}